:10000000F07F0020590D00008512000089120000C9
:1000100000000000000000000000000000000000E0
:100020000000000000000000000000008D12000031
:1000300000000000000000008D1200008D12000082
:100040006D1200008D1200008D1200008D12000054
:100050008D1200008D1200008D1200008D12000024
:100060008D1200009D0600008D1200008D12000010
:100070008D1200008D1200008D1200008D12000004
:100080008D1200008D1200008D1200008D120000F4
:100090008D1200008D1200008D1200008D120000E4
:1000A0008D1200008D1200008D1200008D120000D4
:1000B0008D1200008D1200008D120000F8B5C046B0
:1000C000F8BC08BC9E467047390D0000F8B5C04624
:1000D000F8BC08BC9E467047110D0000F0B5C6463E
:1000E00000B5874C82B023780B2B32D8854A9B0011
:1000F000D3589F46266C300001F044F801F060F8B8
:100100000028FBD1300001F01BF801F059F800285D
:10011000FBD1731CFF33984635007B4FA81B381862
:10012000290000F0E5FF01F04BF80028FBD1403535
:10013000A845F3D1236C754A0133FF332364236B45
:10014000D2680133FF332363934200D295E00A2340
:10015000237002B004BC9046F0BD80226C4D52006A
:10016000FF21280001F04CF8E36B18222900606899
:1001700000F0A0FE002807D0606800F0F9FF00281A
:10018000FAD0012800D1ABE0BFF34F8F614A624B38
:10019000DA60BFF34F8FC046FDE7002001F038F86A
:1001A0000228D6D101232370D3E70321002000F0D9
:1001B000C1F96060431CCCD002232370C9E7210041
:1001C0006068083100F0A2FC002843D003232370AC
:1001D000BFE7A168E368E26A4B43216AA3635B1A45
:1001E0009B186263494918226068E36300F062FE6D
:1001F000002806D0606800F0BBFF0028FAD0012874
:100200006BD006232370A4E7002001F033F8626C62
:1002100013685268591C9CD083F30888104798E7EC
:100220008022394D5200FF21280000F0E9FF226BA7
:10023000636B94468022634452002900606800F09A
:1002400039FE002806D0606800F092FF0028FAD03E
:10025000012831D00D2323707BE72C4B2F4A1968DE
:1002600091422CD080239B01236463640523237077
:100270006FE700F071FF0028C3D00723237068E701
:100280000023224D01212120666CEF68019300F0CC
:100290009FFF012201AB52423900300000F068FE9E
:1002A0000221212000F094FF019B2A69A3649A4255
:1002B000D0D10B2323704CE70923237049E7184A58
:1002C00059699142CED1DA68002ACBD05A689B682E
:1002D00023646364531CD0D0C8E70423237038E739
:1002E0000023E26B290060686B6000F023FE0028A9
:1002F00000D149E7606800F03BFF0028FAD043E7EF
:1003000020020020E40F0000200100200000002057
:10031000200000200400FA0500ED00E0EFBEADDE95
:10032000ADDEEFBEF0B5C64600B5804C63780A2B53
:1003300030D87F4A9B00D3589F461F268223012531
:100340001D2032001B049C4629002056024080B22A
:10035000400960449140C00100F090FF982323774A
:1003600082231D2032001B049C4629002056024097
:1003700080B2400960449140C00100F081FF20003C
:10038000A36A1C305B6801219847002800D1BCE0BB
:1003900008236370A378002B06D0236A002B03D0B8
:1003A000A078616AC0B2984704BC9046F0BD822331
:1003B00001251D201F221B049C46290020560240B7
:1003C00080B2400960449140C00100F057FFA57021
:1003D000E0E7A3691F269846822301251D203200ED
:1003E0001B049C46290020566769024080B24009E0
:1003F00060449140C00100F043FFA36A41469B68FE
:100400003800984700286AD06570C3E7A36AA169DD
:100410005B6860699847002870D004236370B9E76F
:1004200082231D201F221B049C46012120560240CE
:1004300080B2400960449140C00100F01FFF00F00D
:100440003FFC002848D005236370A3E782230125E1
:100450001D201F221B049C4629002056024080B20A
:10046000400960449140C00100F008FF637B1D42D9
:10047000ADD000F025FC002800D08BE72CE08223D3
:100480001D201F221B049C4601212056024080B2E1
:10049000400960449140C00100F0F0FE207F2169D6
:1004A00000F0AEFB002817D00323637072E78223AD
:1004B0001D201F221B049C4601212056024080B2B1
:1004C000400960449140C00100F0D8FE207F2169BE
:1004D00000F096FB0028A0D10223A3705AE71D204C
:1004E000290020560640B14082231B049C4680B25E
:1004F00040096044C00100F0C1FEEDE71D201F224D
:100500000121205602409140EEE70223A37082238E
:100510001D201B049C4629002056064080B240093D
:100520006044B140C00100F0A9FE33E76C02002036
:1005300074100000F8B54746CE46032680B5564DE8
:100540000400AE570F00022E05D0012040420CBC23
:1005500090469946F8BDAB68002BF6D1AB700923E5
:1005600066226B702C23EA541F231A00994601233C
:100570001900984682231D201B049C4628560240E1
:1005800080B2400960449140C00100F079FE28002B
:10059000AB6A2C305B680121984700285ED0AB78AD
:1005A000002BFCD01F2398461A00822301261D2011
:1005B0001B049C4631002856024080B2400960442A
:1005C0009140C00100F05AFE0023AB70092399222C
:1005D0006B702C23EA5482231D2042461B049C4648
:1005E00031002856024080B2400960449140C00169
:1005F00000F046FE2800AB6A2C305B68012198476A
:10060000002811D10223AB7082231D2042461B0417
:100610009C4631002856024080B240096044914017
:10062000C00100F02BFE90E7AB78002BFCD08223BA
:100630001D201F221B049C4601212856024080B227
:10064000400960449140C00100F018FEBB0718D477
:10065000AB682F710133AB60200078E71D204B465B
:10066000414628560340994082231B049C4680B291
:1006700040096044C00100F001FE0120AE7040421C
:1006800065E7200000F0C6FC002800D15DE7AB78EC
:10069000002BFCD0DCE7C0466C02002070B5474B55
:1006A0009A7D002A2FD00722596811401A7E5207DE
:1006B0002AD40122414B187E024219D01A75404AB1
:1006C000002932D0936991688B4268D21468581C13
:1006D0005B001C5B394B90619C62814269D051691F
:1006E000D368994204D10122344B9A7504221A75B9
:1006F000324B1B7E9B0723D4324B1B78002B02D03E
:1007000002222E4B9A7570BD2D4A9C6A5069D5689D
:10071000A842CED2002929D1411C516151680C5404
:100720000121187E0142E3D01975936991688B42CB
:1007300027D21468581CE45C204B90619C62CCE783
:10074000204C2378002BDED01D4A5369D1688B42A0
:10075000D6D1002307201949137708752370136A2F
:10076000002BD0D0506A98472378C7E7411C5161CD
:100770005168400044520121187E0142B8D01975D9
:10078000A0E71069FF2500280DD19942A7D10123C8
:100790000C4C2370094B1B7E9B07B1D5D5E7106924
:1007A0000028F2D0084D054C0138A56210611800F0
:1007B00093E71369002B00D091E7E8E700040042BB
:1007C000A0020020F0020020FFFF0000F0B50700AB
:1007D000002940D000283ED0404D287F002840D13D
:1007E0003F4C666807243440012C65D000202F6000
:1007F0006A606861A8612861002F00D16BE0A96080
:10080000002A64D09C46EB6001222A77344A107E8D
:10081000400704D50426946A147E2642FBD10424A2
:100820002F4A508B204380245083107E2043107623
:100830008C4502D96246521A2A61294842685207F9
:1008400011D1002933D12A69002A1CD0FF21013A95
:1008500081622A6117E00020002B01D0002ABBD161
:10086000F0BD0020FCE72A69490854086246520896
:10087000A9602C61EA6000290CD1002C03D0194A30
:10088000013C82622C61002B0CD10122144B01200F
:100890009A75E5E73A88D205D20D82620122AA61F3
:1008A000002BF2D004220E4B01209A75D8E73A783B
:1008B00082620122AA61E6E7002901D00C42CFD171
:1008C000002B00D192E7DC0700D48FE7C8E7EA608D
:1008D0000022944698E7AF60002191E7A002002033
:1008E00000040042FF010000CC0200201C000000B8
:1008F00000000000200000200001000000000000B7
:100900002001002000010000000000002002002063
:100910004C0000000100000000000000000000008A
:1009200000000000000000000000000000000000C7
:1009300000000000000000000000000000000000B7
:1009400000000000000000000000000000000000A7
:100950000000000000000000002000000020000057
:10096000000000000000002018000000000000004F
:100970006C0200203400000000000000E8020020AB
:100980000800000000000000F0020020010000004C
:1009900000000000A00200202C0000000000000069
:1009A0001800002004000000000000001C000020CF
:1009B0000100000000000000000000000000000036
:1009C0002222222222222222F0B5C6460E0000B5A3
:1009D000431C4FD0284C0025A378002B03D12800BE
:1009E00004BC9046F0BD1F2398461A0082230127BD
:1009F0001D201B049C4639002056024080B240094D
:100A000060449140C00100F039FC0A239F226370CA
:100A10002C23E25482231D2042461B049C463900AD
:100A2000A5702056024080B2400960449140C00148
:100A300000F026FC2000A36A2C301D68320004233D
:100A40000121A847051E12D0A378002BFCD08223D9
:100A50001D201F221B049C4601212056024080B20B
:100A6000400960449140C00100F008FCB7E7022350
:100A7000A370ECE70025B2E76C020020204A214B6E
:100A800070B50021934203D2197001339342FBD118
:100A9000002503261C4803684168002B18D1002953
:100AA0002DD083680C30002B18D000230022845CEA
:100AB0009C5401328A42FAD333000B405A1E9341B0
:100AC000890859188900401803684168002BE6D04E
:100AD00082680C30002A07D10029DCD059181D701B
:100AE00001338B42FBD1D6E70029DFD133000B4025
:100AF0005A1E93418908591889004018E4E770BDCF
:100B00002000002000000020E8080000002310B5AD
:100B100082B00C0001A90193FFF756FF00280DD009
:100B20006B46DB79012B26D0412B26D0022B26D019
:100B3000422B05D00422432B03D0002002B010BD6D
:100B40000322104BD2009B185B680F4A9342F4D9E2
:100B500080214900E160190A636021611B0B80213B
:100B60000122E361002349012260A161A260626168
:100B700022626362E2E70022E3E70122E1E7022268
:100B8000DFE7C046C8100000FF0F0000164B04212D
:100B90005A681B685203DB0C13439B02134A9B0ADF
:100BA00093630023537593691942FCD110220F49B6
:100BB000CB681A42FCD0002204210D4B9A611A61C5
:100BC0000C4A0D4B136253681942FCD14021CC23CF
:100BD000D150CC214022074843581A42FCD002226F
:100BE000064BDA617047C04620608000001000406C
:100BF00000140040001C00400601010000080040F5
:100C00002C2370B5164C0A0CE0542D23E2542E23ED
:100C10000A0AE2542F230425E1540B281AD01D2080
:100C20001F23012120560340994082231B049C4628
:100C300080B240096044C00100F022FB2000A36A9A
:100C40002C305B6829009847041E01D100F028FA77
:100C5000200070BDFF2230230525E254DFE7C046A7
:100C60006C02002070B5144C05002378002B02D0D4
:100C70000120404270BD0126E370A3600B6826701E
:100C8000A3620A791B69627700210C489847822386
:100C90001D201F221B049C4631002056024080B2BA
:100CA00040096044C001914000F0E8FA0223A670B8
:100CB000E3702800DEE7C0466C0200202503000038
:100CC000002310B5114C052263732C231D20E25420
:100CD0001F23012120560340994082231B049C4678
:100CE00080B240096044C00100F0CAFA220020002E
:100CF000A36A0C321C682C3002230121A047041E79
:100D000001D100F0CDF9200010BDC0466C020020DA
:100D100010B5064C2378002B07D1054B002B02D0D1
:100D2000044800E000BF0123237010BDCC02002066
:100D30000000000000000000044B10B5002B03D0A1
:100D40000349044800E000BF10BDC0460000000099
:100D5000D00200200000000010B50A4B98470A4B53
:100D60009847FFF78BFE094AFF21094B8B4393609D
:100D7000084B9847084B9847084B984700F038FABB
:100D8000FEE7C0468F1200008F12000000ED00E069
:100D900000000000A10D00008F1200008F12000063
:100DA00070B500260C4D0D4C641BA410A64209D151
:100DB0000026FFF783F90A4D0A4C641BA410A642D3
:100DC00005D170BDB300EB5898470136EEE7B3008C
:100DD000EB5898470136F2E7C8000000C800000051
:100DE000C8000000CC00000006222C2310B51D20F6
:100DF0000D4C0121E2541F232056034099408223C9
:100E00001B049C4680B240096044C00100F038FADF
:100E10002000A36A2C305B6801219847041E01D191
:100E200000F03EF9200010BD6C02002082238022D9
:100E3000DB05920010B548211A601A6101225A544C
:100E40004A215A544B2155205A5402211954342016
:100E500019542221352019548020044C1C50CC20D8
:100E60001A54CD201A54B622995410BDC000004027
:100E700006220D4B10B55A60FFF7D8FFFFF786FE2C
:100E800000F0CCF900F0F8F900F090F800F0CCF99F
:100E900006490020FFF7E6FE054B186000F0DCF97C
:100EA00000F028F810BDC046004000416412000068
:100EB0001800002070B5013017D00020002905D09F
:100EC000002A03D00A4CA578002D00D170BDA07077
:100ED0006161607019000B20A2612361FFF790FE31
:100EE0000028F3D10223A370F0E70020EEE7C0460C
:100EF0006C020020BFF35F8F62B6C021FF200B4B56
:100F000089005A588243C02002435A5001221A6075
:100F1000C22080001A5806491140C02212020A431A
:100F20001A50802292001A607047C04600E100E02B
:100F3000FF00FFFF70B5431C16D0002914D00B4CE6
:100F40000020A378002B00D170BD802302255B0018
:100F5000A0702577A361616122616570FFF744FF8E
:100F60000028F1D1A570EFE70020EDE76C0200202A
:100F700010B5002915D0002B13D00B4C6060A16078
:100F8000E26062780120D2B262700422227062783C
:100F90001042FCD06278520703D4E26801201A6044
:100FA00000E0002010BDC0460020004100220A4B96
:100FB0001A621A779A60DA608023084A9B025360AB
:100FC000D369002BFCD102231373054B1360034A32
:100FD000D369002BFCD17047A0020020000400421E
:100FE0000E0001309A010000AA010000BE010000BD
:100FF000D20100005A020000720200000802000044
:101000002002000052010000F400000080020000F5
:101010005A01000010B5431C0FD0094C0020A378E2
:10102000002B00D110BD0723A0706370FFF7DCFE1A
:101030000028F7D10223A370F4E70020F2E7C046AE
:101040006C020020084A10B51368002B01D05068CC
:1010500098478023FF22DB051A61044A5A613F2228
:101060009A61034ADA6110BDE8020020FF1F000008
:10107000FFFFFF00D2030000AE0300007E0400006B
:101080000C040000200400004C040000AE0400002A
:101090003A030000AE030000AE030000AE03000000
:1010A0001D2010B5074B012118561F2303409940FE
:1010B00082231B049C4680B240096044C00100F0BA
:1010C000DDF810BD6C0200200100000000002000CF
:1010D000410000000000200002000000000040006D
:1010E00042000000000040004300000000008000BB
:1010F0000A000B0010B54032401AC45810C3934286
:10110000FBD1034B034A4908D96101201A8010BD65
:101110000040004104A5FFFF074B9A68002A03D155
:10112000DA680020002A04D0044A0120127E9207C7
:1011300000D47047187FFCE7A002002000040042A2
:10114000034B044A4008D86101201A807047C0460A
:101150000040004102A5FFFFFA23DB00C046013B2F
:10116000002BFBD18223DB05186A8002C00F704779
:101170000223421C02D0024B9B78DBB2180070475E
:101180006C020020024B034A4008D8611A80704765
:101190000040004141A5FFFFCD07000041120000C3
:1011A000E11100001911000035120000034B1A78FC
:1011B000002A01D101221A707047C0461C0000208D
:1011C0000120024B1B7D98437047C0460040004100
:1011D00080230004000C09040143DB0519607047FB
:1011E00010B502000B0000200021FFF7EFFA10BD40
:1011F00010B50020FFF73CFE00F028F8FCE7C046E1
:1012000003008218934200D1704719700133F9E747
:101210000320014B185670476C0200208222014BBC
:101220005A6070470040004180230122DB055A725A
:101230007047C046014B186259627047A0020020F7
:1012400010B500230022FFF7C1FA10BD10B5FEF75C
:1012500045FFFFF7ABFF10BD0022014B1A7070472E
:101260001C000020981100000900000010B5FFF7D5
:10127000E9FE10BD7047C0467047C04681617047A7
:1012800041617047FEE7C046FEE7C046FEE7704793
:10200000F07F002041460000694E00006F4E000046
:1020100000000000000000000000000000000000C0
:102020000000000000000000000000008B490000DC
:1020300000000000000000008B490000A1480000E3
:102040003F4E00008B4900008B4900008B49000087
:102050008B4900008B4900008B4900008B49000030
:102060008B490000912600008B4900008B4900003D
:102070008B490000193000008B4900008B4900009B
:102080008B4900008B4900008B4900008B49000000
:102090008B4900008B4900008B4900008B490000F0
:1020A0008B4900008B4900008B4900008B490000E0
:1020B0008B4900008B4900008B490000F8B5C046F1
:1020C000F8BC08BC9E467047D9450000F8B5C0462C
:1020D000F8BC08BC9E467047B145000080B500AF13
:1020E0007A4B1B685B780A2B00D9E9E09A00784BA1
:1020F000D3181B689F46754B1B685A69734B1B6846
:102100009B691900100001F09FFF031E04D06F4B64
:102110001B6801225A70D6E06C4B1B6802229A7031
:10212000D1E06A4B1B685B7F5BB2180002F054FD84
:10213000664B1B6801229A70C5E0644B1B685B7F8D
:102140005BB2180002F048FD604B1B681A7F5F4BC2
:102150001B681B691900100000F0B2FD031E04D0BB
:102160005A4B1B6803225A70ADE0584B1B68022281
:102170009A70A8E0554B1B685869544B1B689969C5
:10218000524B1B681B691A0002F02CF8031E04D086
:102190004E4B1B6804225A7095E04C4B1B68022280
:1021A0009A7090E0494B1B685B7F5BB2180002F0AD
:1021B00013FD01F02FFE031E04D0444B1B680522C3
:1021C0005A7080E0414B1B6802229A707BE03F4BC3
:1021D0001B685B7F5BB2180002F0FEFC3B4B1B6888
:1021E0005B7B1A00012313400DD001F013FE0300A6
:1021F0001A0001235340DBB2002B63D0334B1B6822
:1022000002229A705EE0314B1B6801229A7059E0FD
:102210002E4B1B685B7F5BB2180002F0DDFC2B4B82
:102220001B681A7F294B1B681B691900100000F0FE
:1022300047FD031E04D0254B1B6804225A7042E060
:10224000224B1B6802229A703DE0204B1B685B7F8B
:102250005BB2180002F0C0FC1C4B1B6898221A7776
:102260001A4B1B685B7F5BB2180002F0C6FC174B71
:102270001B689B6A5A68154B1B681C3301211800A8
:102280009047031E04D0114B1B6808225A701AE0B5
:102290000E4B1B6802229A700C4B1B685B7F5BB273
:1022A000180002F099FC0EE0084B1B685B7F5BB2E4
:1022B000180002F091FC054B1B6801229A7002E0A5
:1022C000C04600E0C046C046BD4680BD8423002015
:1022D000C84A000080B586B000AFF860B9607A6087
:1022E0003B601723FB1800221A7000233B61BB6878
:1022F000002B02D0FB68002B07D13B68002B00D1DC
:10230000D2E07B68002B00D1CEE06B4B1B7F01221B
:102310005340DBB2002B00D1C6E0684B5B6807225C
:102320001340012B11D1BB68002B03D0BB680122E5
:10233000134006D13B68002B07D03B6801221340B5
:1023400003D01723FB181B78B1E01723FB180122D9
:102350001A70594BFA681A60574B7A685A60564B94
:1023600000225A61544B00229A61534B00221A6199
:10237000FB68002B03D0504BBA689A6002E04E4BCA
:1023800000229A607B68002B03D04B4B3A68DA60DE
:1023900002E0494B0022DA60474B01221A7702E043
:1023A000464B9B6A3B61454B1B7EDBB21A00042304
:1023B0001340042BF4D0414A404B5B8B9BB2042169
:1023C0000B439BB253833D493C4B1B7EDBB28022C7
:1023D00052421343DBB20B76374BDA68364B9B68BD
:1023E0009A4206D9344BDA68334B9B68D21A324B87
:1023F0001A61324B5B68072213401DD12E4B9A693C
:102400002D4B9B689A420AD22C4A2B4B1B681B7897
:102410009362294B9B695A1C274B9A613AE0264BE1
:102420001B69002B36D0254BFF229A62224B1B6979
:102430005A1E214B1A612DE01F4B9B685A081E4BF8
:102440009A601D4B1B695A081B4B1A611A4BDB68BB
:102450005A08194BDA60184B9A69174B9B689A42D5
:102460000CD2164A144B1B681B88DB05DB0D9362EC
:10247000114B9B695A1C104B9A610BE00E4B1B6968
:10248000002B07D00D4B0E4A9A620B4B1B695A1E4C
:10249000094B1A613B68002B03D0084B04229A7544
:1024A00002E0064B01229A751723FB181B781800CF
:1024B000BD4606B080BDC046E822002000040042B0
:1024C000FF01000080B588B000AF02003960FB1D3D
:1024D0001A700023FB610C23FB1818000C231A0050
:1024E000002102F0A4FC634BBB61FB1D1B78022B97
:1024F00008D102F04DFB031E00D1B6E05E4B012275
:102500005A70B2E00C23FB180C21180001F0C2F93C
:1025100002005A4B1A605A4B1B7801225340DBB21F
:10252000002B00D173E00023FB61534B9B78DBB29F
:1025300001225340DBB2002B1CD016E00C23FA180A
:10254000FB69D3181B784D2B0CD14E4B00221A601F
:102550004A4B1A68FB69D21A484B1A60464B012253
:102560009A7007E0FB690133FB61444B1B68FA6911
:102570009A42E3D3434B1B68BA69D0180C23FA186C
:10258000FB69D1183D4B1B681A0002F03FFC3D4B24
:102590001A683A4B1B68D2183A4B1A60394B1B68C1
:1025A000042B12D1334B1B68374A934206D0324B6F
:1025B00000225A71334B00221A6002E02E4B012296
:1025C0005A712D4B01229A714FE02E4B1B68092B3B
:1025D0004BD1284B5A682D4B1A60274B01225A7158
:1025E000244B9B68DAB2244BDA70264B00221A6027
:1025F000264B1B68002B06D1214B00221A701E4B64
:1026000001221A7131E01E4B01221A702DE01C4B81
:102610001B78002B29D01B4B1A681C4B1B689A4255
:1026200011D2184B1B68BA69D018144B1A680C23C6
:10263000FB18190002F0EAFB124B1A680F4B1B68DB
:10264000D218104B1A600F4B1A68104B1B689A4235
:102650000BD30C4B00221A60094B00221A700B4B53
:1026600000221A60044B01221A71C046BD4608B010
:1026700080BDC04638000020080000208C230020C8
:1026800099230020902300204D434850942300209C
:1026900090B583B000AF00237B6000233B60664BA6
:1026A0009B7DDBB2002B00D1C2E0634B5B6807224D
:1026B00013407B60604B1B7EDBB21A000423134087
:1026C000042B23D15C4B9B6A3B605C4B5A695B4B90
:1026D000DB689A421AD27B68002B0BD1574B5968A2
:1026E000564B5B69581C554A5061CB183A68D2B2B8
:1026F0001A700BE0514B5968504B5B69581C4F4A9C
:1027000050615B00CB183A6892B21A804A4B1B7E2C
:10271000DBB21A0001231340012B5DD1464B01228D
:102720001A757B68002B1ED1444B9A69434B9B68FA
:102730009A420BD24049414B1868404B9B695C1C44
:102740003E4A9461C3181B788B622BE03B4B1B699C
:10275000002B27D0384BFF229A62384B1B695A1E38
:10276000364B1A611EE0354B9A69344B9B689A428E
:102770000CD23149314B1868304B9B695C1C2F4A95
:1027800094615B00C3181B888B620BE02B4B1B69A9
:10279000002B07D0284B2A4A9A62284B1B695A1EE5
:1027A000264B1A61254B9A69244B9B689A4207D1A4
:1027B000224B1B69002B03D1224B01221A700BE024
:1027C0001E4B5A691D4BDB689A4205D11A4B0122F8
:1027D0009A75194B04221A75174B1B7EDBB21A002F
:1027E00002231340022B1CD1164B1B78002B18D050
:1027F000124B5A69114BDB689A4212D10F4B0022DF
:102800001A770D4B07221A750E4B00221A700B4BCC
:102810001B6A002B05D0094B1A6A084B5B6A18002B
:102820009047084B1B78002B02D0034B02229A756D
:10283000C046BD4603B090BD00040042E82200201F
:10284000FFFF00009823002080B500AF614B1B788C
:10285000052B00D9B4E09A005F4BD3181B689F4644
:1028600001F012FA031E00D1ACE05A4B01221A709B
:10287000A8E05A4B0021180002F09CF9012002F058
:10288000FDF90121012001F06BFF524B02221A7069
:102890009DE0504B5B78DBB2002B06D04D4B002205
:1028A0005A704C4B04221A7091E04A4B9B78DBB271
:1028B000002B3FD0474B9B79DBB2002B3AD0454BE6
:1028C0005B79DBB201225340DBB2002B0CD05120EC
:1028D00002F038F93F4B04221A703E4B00229A70E6
:1028E0003C4B00229A7172E03A4B1B79DBB2002B11
:1028F00028D0384B00229A7001F00EFC03001A0019
:10290000374B1A70364B1B78002B03D1314B042206
:102910001A7017E0324B1B78042B03D12D4B052284
:102920001A700FE02E4B1B78052B0BD1294B03227D
:102930001A7007E02A4B1B78042B45D1254B052242
:102940001A7041E0C0463FE08223DB051B6A5B0D45
:1029500001221340012B10D1C0468223DB051B6AE4
:102960005B0D01221340012BF7D001F08DFE031EF9
:102970002CD0184B03221A7028E0164B9B78DBB240
:10298000002B23D002F026FA124B02221A701DE00F
:10299000104B00229A700F4B00229A710D4B0022AF
:1029A0005A710C4B00221A7102F014FA0C4B0022DF
:1029B0001A70084B02221A7009E002F051FA06E080
:1029C000C04604E0C04602E0C04600E0C046C04643
:1029D000BD4680BD08000020944D0000C5240000C5
:1029E0009A2300203C2300201C000000000000006F
:1029F000B4220020340000000000000084230020E6
:102A00000400000001000000B42200201423002074
:102A1000280000000100000001000000000020006C
:102A20004100000000002000020000000000400003
:102A30004200000000004000430000000000800051
:102A40007C2300200800000000000000E822002095
:102A50002C0000000000000098230020010000006E
:102A6000000000003C2200204000000000000000A8
:102A70003C2100208000000000000000BC2100205C
:102A80008000000000000000702300200C00000007
:102A90000000000000000020040000000000000012
:102AA0000400002001000000000000005823002066
:102AB0001800000000000000380000200410000092
:102AC0000000000088230020040000000000000037
:102AD0008C23002004000000000000009923002047
:102AE000010000000000000090230020040000000E
:102AF00000000000942300200400000000000000FB
:102B00009A230020010000000000000008000020BF
:102B100018000000000000007C22002038000000A7
:102B2000000000003C200020000100000000000028
:102B30003C100020001000000000000020000020D9
:102B4000180000000000000000000000000000006D
:102B50002222222280B588B000AF0200FB1D1A702D
:102B60001F23FB1800221A70FB1D1B78A02B35D1E8
:102B70004F4B1B681B0B1B03BB614D4B5B68FF225C
:102B800093431A00BB69D3187B617A69BB699A4287
:102B900017D97A698023DB029A4212D8454BBA6969
:102BA0009A60444B7A69DA607A69BB69D21A414B00
:102BB0001A61502001F0C6FF1F23FB1801221A7072
:102BC0006CE03C4B00229A603A4B0022DA60394BB1
:102BD00000221A61512001F0B5FF5FE0FB1D1B7858
:102BE000A12B1AD1324B1B681B0B1B033B61314BD2
:102BF0009A683B699A420CD82E4BDA683B699A4234
:102C000007D92D4B2D4A1A601F23FB1802221A7078
:102C100044E0512001F096FF40E0FB1D1B78A22B01
:102C200025D1234B1B68FB600023BB60214B1B6934
:102C30000822BA181100180000F0BCFB031E12D0C5
:102C4000BB68FA689A420AD11A4BFA685A61532053
:102C500001F078FF1F23FB1804221A701EE0542095
:102C600001F070FF1AE0542001F06CFF16E0FB1D2C
:102C70001B78A32B0FD101F007FD031E07D05020B6
:102C800001F060FF1F23FB1805221A7006E0512097
:102C900001F058FF02E0522001F054FF054B0022E2
:102CA0001A711F23FB181B781800BD4608B080BDA1
:102CB0003800002008000020882300203C0000206D
:102CC00090B585B000AF02003960FB1D1A700E236D
:102CD000FB1800221A700F23FB1800221A70414BB8
:102CE0001A680F23FB181B780F217918581C0870DD
:102CF0002C21D3185B18FA1D12781A70394B1A68F8
:102D00000F23FB181B780F217918581C08701C0022
:102D10003B681B0CD8B22C2113195B18021C1A70CB
:102D2000304B1A680F23FB181B780F217918581C99
:102D300008701C003B681B0AD8B22C2113195B18C1
:102D4000021C1A70274B1A680F23FB181B780F21DF
:102D50007918581C08703968C8B22C21D3185B1830
:102D6000021C1A70FB1D1B780B2B0DD11D4B1A6812
:102D70000F23FB181B780F217918581C08702C2181
:102D8000D3185B18FF221A70164B1B685B7F5BB26F
:102D9000180001F032FF134B1B689B6A5A68114BF5
:102DA0001B682C3318000F23FB181B780E217C188E
:102DB00019009047030023700E23FB181B78012293
:102DC0005340DBB2002B06D0064B1B685B7F5BB227
:102DD000180001F001FF0E23FB181B781800BD46F8
:102DE00005B090BD8423002080B584B000AF78602A
:102DF000404BFB6080235A003E4BFF21180002F03D
:102E000016F87B689A68FB689A607B68DA68FB68EA
:102E1000DA607B681A69FB681A61FB68012252421A
:102E20005A60FB68344A1A60FB68344A5A61344B72
:102E30001A68334B1B6B1900100001F0A7FD03004B
:102E40001A0001235340DBB2002B01D000234DE0D8
:102E500001F03EFC03001A0001235340DBB2002BBB
:102E600001D0002342E0264B1868254B1A6B214BFA
:102E7000190000F0C1FC03001A0001235340DBB22B
:102E8000002B01D0002331E001F022FC03001A00E6
:102E900001235340DBB2002B01D0002326E0184B66
:102EA0001868174B1B6B1749182200F005FC03002C
:102EB0001A0001235340DBB2002B01D0002315E0A0
:102EC00001F006FC03001A0001235340DBB2002B83
:102ED00001D000230AE007490A4B1822180001F02C
:102EE000FDFE031E01D0002300E001231800BD46B3
:102EF00004B080BD3C200020EFBEADDEADDEEFBEF5
:102F00007C2200202000002090B583B000AFFB1D84
:102F100000221A703F4B1B6800229A703D4B1B68C1
:102F200009225A703B4B1B682C2266219954394B5D
:102F30001B685B7F5BB2180001F05FFE354B1B68BE
:102F40009B6A5A68334B1B682C3301211800904749
:102F500003001A0001235340DBB2002B0DD02D4B90
:102F60001B685B7F5BB2180001F036FE294B1B68C3
:102F700002229A70FB1D1B7847E0C046254B1B6858
:102F80009B78DBB2002BF9D0224B1B685B7F5BB2D6
:102F9000180001F021FE1F4B1B6800229A701D4B88
:102FA0001B6809225A701B4B1B682C2299219954CB
:102FB000184B1B685B7F5BB2180001F01EFE154BBF
:102FC0001B689B6A5A68134B1B682C33FC1D01213C
:102FD0001800904703002370FB1D1B78002B07D0BF
:102FE000C0460C4B1B689B78DBB2002BF9D003E08A
:102FF000084B1B6802229A70064B1B685B7F5BB212
:10300000180001F0E9FDFB1D1B781800BD4603B058
:1030100090BDC0468423002080B582B000AFFB1D68
:1030200000221A703C4B9B7DDBB2002B00D16FE07D
:10303000394B1B7EDBB21A0080231A40FB1D803AFD
:1030400051424A411A70344B9B7DDBB21A008023F7
:103050001340802B05D1FB1D1B78002B01D00122D2
:1030600000E00022FB1D1A701A7801210A401A7034
:10307000FB1D1B78002B01D001F024FA264B1B7E90
:10308000DBB21A0001231A40FB1D013A51424A41AA
:103090001A70214B9B7DDBB21A0001231340012BD8
:1030A00005D1FB1D1B78002B01D0012200E000227E
:1030B000FB1D1A701A7801210A401A70FB1D1B783B
:1030C000002B01D001F0EEF8134B1B7EDBB21A008F
:1030D00004231A40FB1D511E8A411A700E4B9B7D22
:1030E000DBB21A000423134005D0FB1D1B78002B14
:1030F00001D0012200E00022FB1D1A701A78012184
:103100000A401A70FB1D1B78002B01D001F090FCC7
:10311000C046BD4602B080BD0014004280B586B0F6
:1031200000AF78603960354B5B6B7B6100233B619E
:103130000023BB600023FB603B68314A934201D807
:10314000002357E03B681B0BBB6000233B614CE056
:103150002A4B1B687A691100180001F017FC030064
:103160001A0001235340DBB2002B01D0002341E0C1
:1031700001F0AEFA03001A0001235340DBB2002B2A
:1031800001D0002336E00023FB6025E01B4B1B68C9
:103190007A697968180000F02FFB03001A000123F8
:1031A0005340DBB2002B01D0002323E001F090FA62
:1031B00003001A0001235340DBB2002B01D000238F
:1031C00018E07B690133FF337B617B680133FF3398
:1031D0007B60FB680133FB60FB680F2BD6D9074B84
:1031E0007A695A633B6901333B613A69BB689A4229
:1031F000AED301231800BD4606B080BD7C2200205E
:10320000FF0F0000B0B582B000AF02003960FB1DB7
:103210001A70FB1D1B787F2B28D82F4CFB1D1B78A9
:103220005BB29B082C49FA1D127852B29208C03248
:1032300092005258F91D0978080003210140C90085
:10324000FF2088400100C94311403A689201FF20E5
:103250001040FA1D1278150003222A40D200904037
:1032600002000A43C0339B001A5131E01B4CFB1D86
:103270001B781A000F231340083B9908174AFB1DBF
:103280001B7818000F230340083B9B0806339B0064
:10329000D31804331B68FA1D127810000322024071
:1032A000D200FF2090400200D2431A403B689B01AD
:1032B000FF201840FB1D1B781D0003232B40DB0063
:1032C000984003001A438B1D9B00E31804331A60D7
:1032D000C046BD4602B0B0BD00E100E000ED00E038
:1032E00080B500AF2F4B304A1A602E4B2F4A9A817F
:1032F0002C4BC02292025A60C0462A4BDB69002B3D
:10330000FBD1284B274A126802210A431A60C046A3
:10331000244BDB69002BFBD1254B00221A62244B86
:1033200000229A62224B0022DA62214B34220021D1
:1033300099541F4B3C22002199541D4B00229A6343
:103340001B4B0022DA871A4B00221A60184B00220E
:103350009A60174B0022DA60154B00221A75144B45
:1033600000221A77124B00229A610E4B5B680722EB
:103370001340012B06D00E4B80221A630C4B802287
:103380001A6105E00A4B40221A63094B40221A6178
:10339000044B80229A75034B04229A75C046BD46A1
:1033A00080BDC04600140042040110402BF6FFFF10
:1033B0003C220020B0B586B000AF786039600023B1
:1033C0007B6100233B610F23FB1800221A703B68CE
:1033D000012252421A6000237B6141E080235A019E
:1033E000254BFF21180001F022FD244B18683C6991
:1033F00080235A012049230000F05EF903001A00DF
:1034000001235340DBB2002B01D0002330E001F058
:103410005FF903001A0001235340DBB2002B01D0F7
:10342000002325E00121212001F0CCFA12483B685D
:103430001A680F23FC183D68802359012B0000F007
:1034400067FC030023700221212001F0BBFA3B69D5
:1034500080225201944663443B617B6901337B6166
:103460007B681A0B7B699A42B8D80F23FB181B782C
:103470001800BD4606B0B0BD3C1000207C220020E4
:10348000B0B584B000AF786039600F23FB1800221C
:103490001A707B68013305D0294B1B689B78DBB21F
:1034A000002B03D10F23FB181B7845E0244B1B682E
:1034B0005B7F5BB2180001F08FFB214B1B68002281
:1034C0009A701F4B1B680A225A701D4B1B682C22D6
:1034D0009F2199541A4B1B685B7F5BB2180001F067
:1034E0008CFB174B1B689B6A1D68154B1B682C33A4
:1034F00018000F23FC183A6804230121A847030091
:1035000023700F23FB181B78002B07D0C0460C4BF1
:103510001B689B78DBB2002BF9D003E0084B1B68DB
:1035200002229A70064B1B685B7F5BB2180001F0A9
:1035300053FB0F23FB181B781800BD4604B0B0BD29
:103540008423002080B584B000AF0200BB1D1A8028
:103550000B23FB1800221A70274B9B6A0133FB6078
:10356000254B1A6BFB689A4201D80023FB60224B63
:10357000DA6AFB689A4215D11F4B1B6A002B11D0E7
:103580001D4B1A6A1C4B5B6A1900012090471A4BAD
:103590009B6A0133FB60184B1A6BFB689A4201D897
:1035A0000023FB60144BDA6AFB689A421CD0134B71
:1035B0005B6807221340012B07D00F4B9B6ABA1D93
:1035C0001288D1B20E4AD15407E00B4B9B6A5A00C5
:1035D0000B4BD318BA1D12881A80074BFA689A62EF
:1035E0000B23FB1801221A700B23FB181B78180001
:1035F000BD4604B080BDC0463C22002000140042FD
:103600003C21002080B584B000AF78603960002391
:10361000FB600823FB1800221A600823FA187B6855
:1036200011001800FFF72CFF03001A00012353407C
:10363000DBB2002B01D0002338E00823FB18DB7835
:10364000180000F095FC0300FB60FB68002B02D023
:10365000FB68002B01D1002328E0FB68154A934248
:1036600001D8002322E03B6801221A603B68FA6817
:103670005A603B6880225200DA60FB681A0A3B6895
:103680001A613B68802252019A61FB681A0B3B6801
:10369000DA613B6801229A603B6801225A613B680B
:1036A00001221A623B6800225A6201231800BD46BB
:1036B00004B080BDFF0F000090B587B000AFF86088
:1036C000B9607A603B601723FB1800221A70FB6810
:1036D00001330BD0BB68002B08D07B68002B05D0D2
:1036E0001C4B1B689B78DBB2002B03D11723FB1804
:1036F0001B782BE0174B1B6800229A70154B1B6838
:103700007A689A61134B1B68BA685A61114B1B683F
:103710003A681A610F4B1B6800225A701723FC1875
:103720003B6819000B20FFF7CBFA03002370172327
:10373000FB181B7801225340DBB2002B03D0054B52
:103740001B6802229A701723FB181B781800BD46CD
:1037500007B090BD8423002080B582B000AF020086
:10376000BB1D1A807B1D0A1C1A70224B1B68DB785C
:103770005BB2022B04D11F4B1B689B68002B02D04D
:1037800001235B4232E0FFF7BFFB03001A00012375
:103790005340DBB2002B02D001235B4226E07B1DAD
:1037A0001B780222134015D0BB1D1B88180000F0A7
:1037B000A7FB03001A0001235340DBB2002B02D009
:1037C00001235B4212E0C0460A4B1B689B78DBB2C8
:1037D000002BF9D0074B1B689A6801329A60054BA1
:1037E0001B687A1D12781A71BB1D1B881800BD4614
:1037F00002B080BD8423002090B587B000AFF86090
:10380000B9607A601723FB1800221A70FB68013335
:1038100008D0BB68002B05D01D4B1B689B78DBB222
:10382000002B03D11723FB181B782DE0184B1B68C6
:1038300000229A70164B1B6802221A77144B1B68E1
:10384000802252009A61124B1B68BA685A61104B71
:103850001B687A681A610E4B1B6802225A70172384
:10386000FC1800F0BBFB030023701723FB181B7828
:1038700001225340DBB2002B03D0054B1B68022210
:103880009A701723FB181B781800BD4607B090BD2F
:103890008423002080B586B000AF786039600023B3
:1038A0007B61204BDB6A3B611E4B9B6AFB602AE01D
:1038B0003A69FB689A422BD01B4B5B680722134086
:1038C000012B0BD07B695A1C7A617A68D2183B694C
:1038D000591C39611549CB5C13700DE07B695A1C8A
:1038E0007A615B007A68D2183B69591C39615900CA
:1038F0000E4BCB181B8813800A4B1A6B3B699A42FC
:1039000001D800233B617A693B689A42D0D300E03A
:10391000C046044B3A69DA627B691800BD4606B0BE
:1039200080BDC0463C220020001400423C21002003
:1039300080B584B000AF02003960BB1D1A8000233F
:10394000FB601F4B1B681B78002B02D001235B42DE
:1039500031E01B4B1B680022DA70194B1B680122F7
:103960001A70174B1B6800229A603B68FB60144B6F
:103970001B68FA6812689A62114B1B68FA68127920
:1039800052B25A770E4B1B689B6A1B690D4A002185
:10399000100098470A4B1B685B7F5BB2180001F070
:1039A0001BF9074B1B6801229A70054B1B6802220A
:1039B000DA70BB1D1B881800BD4604B080BDC04630
:1039C00084230020F945000080B586B000AF0200D6
:1039D000BB1D1A801D4B9B68FB601C4BDB68BB60EA
:1039E0001323FB1800221A70FB6801337B61174B0D
:1039F0001A697B699A4201D800237B617A69BB68A6
:103A00009A421CD0124B5B6807221340012B08D04E
:103A1000BB1D1B88D9B20F4AFB68D3180A1C1A7049
:103A200006E0FB685A000B4BD318BA1D12881A80A7
:103A3000064B7A699A601323FB1801221A7013232C
:103A4000FB181B781800BD4606B080BD3C22002044
:103A500000140042BC210020204A214B70B50021F7
:103A6000934203D2197001339342FBD10025032600
:103A70001C4803684168002B18D100292DD08368A9
:103A80000C30002B18D000230022845C9C5401329F
:103A90008A42FAD333000B405A1E934189085918C1
:103AA0008900401803684168002BE6D082680C301A
:103AB000002A07D10029DCD059181D7001338B4230
:103AC000FBD1D6E70029DFD133000B405A1E9341CA
:103AD0008908591889004018E4E770BD38000020B3
:103AE00000000020E429000080B586B000AF7860B7
:103AF0001723FB1800221A701B4B9B68FB601A4BA4
:103B0000DB683B613A69FB689A4225D0174B5B68DA
:103B100007221340012B08D03B695A1C3A61144A12
:103B2000D35C9AB27B681A8008E03B695A1C3A6100
:103B30005A000F4BD3181A887B681A800A4B1A69EF
:103B40003B699A4201D800233B61074B3A69DA602E
:103B50001723FB1801221A701723FB181B78180073
:103B6000BD4606B080BDC0463C2200200014004285
:103B7000BC210020002934D00123002210B4884247
:103B80002CD301242407A14204D2814202D209018C
:103B90001B01F8E7E400A14204D2814202D24900AD
:103BA0005B00F8E7884201D3401A1A434C08A04250
:103BB00002D3001B5C0822438C08A04202D3001BE6
:103BC0009C082243CC08A04202D3001BDC082243FD
:103BD000002803D01B0901D00909E3E7101C10BC21
:103BE000704701B5002001F045F902BD0029F8D069
:103BF00003B5FFF7C1FF0EBC4243891A1847C04600
:103C000080B500AF8223DB05802292001A608223F8
:103C1000DB05802292001A618223DB054822012104
:103C200099548223DB054A22012199548223DB0522
:103C30004B22012199548223DB05552202219954FC
:103C40008223DB053422022199548223DB053522AD
:103C5000222199548223DB0580220A49995082232C
:103C6000DB05CC22012199548223DB05CD220121E1
:103C700099548223DB05B62222219954C046BD46C1
:103C800080BDC046C000004080B500AF002000F0FD
:103C9000C5FF0300022B01D000232FE003210020E9
:103CA000FFF75AFD0200174B1A60164B1B680133D1
:103CB00001D1002322E0134B1B68134A11001800A6
:103CC000FFF7A0FC03001A0001235340DBB2002BD6
:103CD00006D00C4B1B68180000F0DEFE00230DE040
:103CE000084B5A68074B9B685A43064BDA62054BF0
:103CF000DB6A064A9A18034B1A6301231800BD4673
:103D000080BDC0467C2200208022002000F0FFFF02
:103D100080B586B000AFF860B9607A603B60172369
:103D2000FB1800221A70BB68002B2AD03B68002BBE
:103D300027D0174BFA685A60154BBA689A60144B33
:103D40007A68DA60124B124A5278D2B25A70104B2B
:103D500004221A70C0460E4B5B78DBB21A000123B6
:103D60001340F8D00A4B5B78DBB21A0004231340EF
:103D700007D1074BDA683B681A601723FB1801224A
:103D80001A701723FB181B781800BD4606B080BDBB
:103D90000020004180B584B000AF78603960002316
:103DA000FB6020E01A4B5B6807221340012B0DD00B
:103DB0007A68FB68D3181B789BB21800FFF704FEE3
:103DC000031E15D0FB680133FB600CE0FB685B0051
:103DD0007A68D3181B881800FFF7F6FD031E09D078
:103DE000FB680133FB60FA683B689A42DAD302E071
:103DF000C04600E0C04600F015FD031E02D0044B93
:103E000001229A75FB681800BD4604B080BDC0460B
:103E100000140042B0B582B000AFFB1D00221A7042
:103E20001A4B1B6800225A73184B1B682C22052161
:103E30009954164B1B685B7F5BB2180000F0DDFEE7
:103E4000124B1B689B6A1D68104B1B682C331800B3
:103E50000E4B1B680C331A00FC1D02230121A847DE
:103E600003002370FB1D1B7801225340DBB2002BA3
:103E700006D0064B1B685B7F5BB2180000F0ACFEFF
:103E8000FB1D1B781800BD4602B0B0BD8423002086
:103E900090B585B000AF02003960FB1D1A700F238A
:103EA000FB1800221A70154B1B6800229A70134BE6
:103EB0001B68FA1D12781A77104B1B683A681A6152
:103EC0000E4B1B6806225A700F23FC1800F086F870
:103ED000030023700F23FB181B7801225340DBB231
:103EE000002B03D0054B1B6802229A700F23FB188E
:103EF0001B781800BD4605B090BDC0468423002045
:103F000090B585B000AF78600F23FB1800221A70BF
:103F10007B68013305D0154B1B689B78DBB2002B07
:103F200003D10F23FB181B781CE0104B1B680022E9
:103F30009A700E4B1B6807225A700F23FC1800F072
:103F40004DF8030023700F23FB181B780122534008
:103F5000DBB2002B03D0054B1B6802229A700F23A3
:103F6000FB181B781800BD4605B090BD84230020C7
:103F700080B584B000AF0200FB1D1A700F23FB1840
:103F800000221A700F23FB1800221A7019E0FB1D83
:103F90001A780F23FB1819780F4BC900CB589A4297
:103FA00008D10F23FB181B780B4ADB00D31804330E
:103FB0001B680CE00F23FB181A780F23FB18013243
:103FC0001A700F23FB181B78042BE0D9002318006C
:103FD000BD4604B080BDC0461423002090B583B018
:103FE00000AFFB1D00221A70164B1B682C22062105
:103FF0009954144B1B685B7F5BB2180000F0FDFD09
:10400000104B1B689B6A5A680E4B1B682C33FC1DB7
:1040100001211800904703002370FB1D1B7801222B
:104020005340DBB2002B06D0064B1B685B7F5BB2B4
:10403000180000F0D1FDFB1D1B781800BD4603B031
:1040400090BDC0468423002090B585B000AF786055
:1040500039600F23FB1800221A70134B5B7F5BB291
:10406000180000F0CAFD114B1B689B6A9B680F2269
:10407000BC1839687A6810009847030023700F2332
:10408000FB181B7801225340DBB2002B05D0064BF6
:104090005B7F5BB2180000F09FFD0F23FB181B78BD
:1040A0001800BD4605B090BDB42200208423002036
:1040B00080B582B000AF174B34229B5C002B25D01B
:1040C00000F090FB03007B60124B1B6A002B1DD09D
:1040D000104B3C229B5C002B0CD00E4B9A6B7B68E8
:1040E0009A4213D80B4B1A6A0A4B5B6A19000020DC
:1040F00090470BE0074B9A6B7B689A4206D1054BC1
:104100001A6A044B5B6A190000209047C046BD46FE
:1041100002B080BD3C22002090B583B000AFFB1DF3
:1041200000221A70144BDB78DBB2FC1D1800FEF77E
:1041300011FD03002370FB1D1B78022B16D10F4BC2
:104140001A6880235B0119001000FEF7E7FF031EC9
:1041500006D0502000F0F6FCFB1D03221A7005E08B
:10416000FB1D00221A70512000F0ECFCFB1D1B7897
:104170001800BD4603B090BD080000208823002031
:1041800080B582B000AF164B1B7D002B24D000F011
:10419000C3FD03007B60124B1B68002B1CD0104B2F
:1041A0001B7F002B0CD00E4B9A697B689A4213D868
:1041B0000B4B1A680A4B5B681900032090470BE011
:1041C000074B9A697B689A4206D1054B1A68044BE3
:1041D0005B68190003209047C046BD4602B080BD11
:1041E0003C22002090B587B000AFF860B9607A60DB
:1041F0001723FB1800221A70104B1B689B6A5B6820
:104200001722BC18B968FA68100098470300237099
:104210001723FB181B7801225340DBB2002B05D07B
:10422000074B5B7F5BB2180000F0D6FC1723FB182E
:104230001B781800BD4607B090BDC04684230020FF
:10424000B422002080B582B000AFFB1D00221A709E
:10425000124B9B68002B07D1104BDB68002B03D15E
:10426000FB1D00221A7013E00D4B1B7EDBB21A00FF
:104270000223134003D0094B1B7F002B01D00122E6
:1042800000E00022FB1D1A701A7801210A401A7002
:10429000FB1D1B781800BD4602B080BDE82200203F
:1042A0000004004280B582B000AF1DE0BB1D1800C5
:1042B000FFF71AFC031E13D0114B5B680722134053
:1042C000012B06D00E4ABB1D1B88DBB29BB21385A7
:1042D00003E00B4ABB1D1B881385FFF751FF03E06A
:1042E000074B01221A7507E0054B1B7EDBB21A0053
:1042F00001231340012BD9D0C046BD4602B080BD7A
:104300000014004280B586B000AF786000237B6166
:1043100000233B610323FB60104B1B68FA681A40C3
:10432000FB689A4215D10E4B9B687B617B68FA2231
:1043300092005A43FA2399001000FFF71BFC030078
:104340003B61C046064B9A687B69D21A3B699A4228
:10435000F8D3C046BD4606B080BDC04610E000E0C0
:104360007023002080B582B000AF7860124B062227
:104370005A60FFF745FC00F07BF800F017FD00F0F5
:1043800065FD00F01FF800F06DFA00F02DFDFEF75E
:10439000A7FF0A4B19000020FFF7CAFA0200084BDA
:1043A0001A6000F0EBFC00F05DFB00F0D1FAC046B3
:1043B000BD4602B080BDC04600400041584E0000DE
:1043C0000000002080B500AF114B00221A62104B94
:1043D00000221A770E4B00229A600D4B0022DA6001
:1043E0000C4B802292025A60C0460A4BDB69002BBC
:1043F000FBD1084B02221A73064B074A1A60C046CB
:10440000044BDB69002BFBD1C046BD4680BDC046D6
:10441000E8220020000400420E00013090B583B075
:1044200000AF114B5C681B686003D90C0143E20CC0
:104430000B009B029B0A7B600C4B7A689A630B4BC8
:1044400000225A75C046094B9B6904221340042B75
:10445000F9D0C046054BDB6810221340102BF9D170
:10446000C046BD4603B090BD2060800000100040F3
:1044700080B500AFFFF7D2FF00F040FC00F04EFB2C
:104480000E4ACC234021D150C0460C4ACC23D358ED
:1044900040221340402BF8D1084ADC234021D15060
:1044A000C046064ADC23D35840221340402BF8D1A3
:1044B000034B2222DA61C046BD4680BD001C00408D
:1044C0000008004080B582B000AF104B5B8B9AB201
:1044D000BB1D07210A401A80BB1D1B88002B10D072
:1044E0000B4BBA1D1288DA8700F05CF9084B1B6A87
:1044F000002B06D0064B1A6A054B5B6A1900022096
:104500009047C046BD4602B080BDC0460014004280
:104510003C22002080B582B000AF114B1B78002BED
:1045200002D0012B0BD016E0FB1D01221A70FB1DDF
:104530001B78002B0ED00A4B01221A700AE0FA23D6
:104540005B001800FFF7DEFE8223DB059C22402182
:10455000995000E0C046C046BD4602B080BDC0468E
:104560000400002080B500AF0E4B1B68002B05D067
:104570000C4B1A680B4B5B68180090478023DB05D7
:10458000FF221A618023DB05074A5A618023DB057D
:104590003F229A618023DB05044ADA61C046BD46AA
:1045A00080BDC0467C230020FF1F0000FFFFFF00EE
:1045B00010B5064C2378002B07D1054B002B02D0F9
:1045C000044800E000BF0123237010BD3C230020FD
:1045D0000000000000000000044B10B5002B03D0C9
:1045E0000349044800E000BF10BDC04600000000C1
:1045F000402300200000000080B582B000AF78604A
:10460000FDF76CFD0D4B1B689B78DBB2002B10D0C7
:104610000A4B1B681B6A002B0BD0084B1B681A6ADD
:10462000064B1B689B78D8B2044B1B685B6A190069
:104630009047C046BD4602B080BDC04684230020DE
:1046400010B50A4B98470A4B9847FFF705FA094AF5
:10465000FF21094B8B439360084B9847084B9847C1
:10466000084B984700F0DBFBFEE7C046FB4C000020
:10467000FB4C000000ED00E00020000019470000A6
:10468000FB4C0000FB4C000090B583B000AFFB1D5D
:1046900000221A700C4B9A680C4B9A600A4B1A69EC
:1046A0000A4BDA60084B5A69084B1A61FC1D074B2C
:1046B0001800FEF799FB03002370FB1D1B78180000
:1046C000BD4603B090BDC04608000020582300201E
:1046D00090B583B000AFFB1D00221A70BB1D0222F3
:1046E0001A700C4B1B68BC1D180000F003FA030085
:1046F0002370BB1D1B78002BF3D0BB1D1B78012B37
:1047000002D1FB1D01221A70FB1D1B781800BD464B
:1047100003B090BD7C22002070B500260C4D0D4CDE
:10472000641BA410A64209D10026FDF7C7FC0A4D60
:104730000A4C641BA410A64205D170BDB300EB580F
:1047400098470136EEE7B300EB5898470136F2E799
:10475000C8200000C8200000C8200000CC200000B5
:1047600080B584B000AF0200FB1D1A70BB1D0A1C8F
:104770001A700F23FB180A4A3421525C1A70084B36
:10478000FA1D342112785A54054BBA1D3C21127877
:104790005A540F23FB181B781800BD4604B080BD87
:1047A0003C22002080B582B000AFFB1D00221A70B1
:1047B0000B4B80221A760A4B07225A8304E0084BDF
:1047C0001B8D9AB2FB1D1A70054B1B7EDBB21A00C3
:1047D00004231340042BF2D0C046BD4602B080BD76
:1047E0000014004280B584B000AF0D4BDB6ABB60A3
:1047F0000B4B9B6A7B607A68BB689A4204D37A68E9
:10480000BB68D31AFB6006E0054B1A6BBB68D21A73
:104810007B68D318FB60FB681800BD4604B080BD00
:104820003C22002080B584B000AF0D4B9B68BB607C
:104830000B4BDB687B60BA687B689A4204D3BA682A
:104840007B68D31AFB6006E0054B1A697B68D21AB5
:10485000BB68D318FB60FB681800BD4604B080BD80
:104860003C22002080B500AF0A4B00221A60094BA1
:1048700000229A60074B084A5A60064B06221A60CB
:10488000064B00229A60054B00221A60C046BD46C6
:1048900080BDC04610E000E07FBB00007023002018
:1048A00080B582B000AF0B4B1B687B600A4B9B68E6
:1048B0005A1C094B9A60084B1B68002B05D0064B0D
:1048C0001A68054B5B6818009047C046BD4602B0A9
:1048D00080BDC04610E000E07023002080B582B0AB
:1048E00000AF0200BB1D1A80BB1D1B885B099BB279
:1048F0008222120494466344D801BB1D1B881F22E8
:10490000134001229A401300190000F013FAC04628
:10491000BD4602B080BD80B582B000AF0200BB1DB5
:104920001A80BB1D1B885B099BB28222120494462D
:104930006344D801BB1D1B881F22134001229A40EB
:104940001300190000F002FAC046BD4602B080BD57
:1049500080B500AFBFF35F8F62B603210020FEF782
:1049600051FC002000F04AF803210920FEF74AFC20
:10497000092000F043F803210D20FEF743FC0D2031
:1049800000F03CF8C046BD4680BDFEE780B582B071
:1049900000AF786039607B68013305D0084B1B6835
:1049A0009B78DBB2002B01D1002305E03B681900A6
:1049B0002020FFF76DFA03001800BD4602B080BD4D
:1049C0008423002080B582B000AF0200FB1D1A7066
:1049D000BB1D0A1C1A708023DB05FA1D127852B227
:1049E0001204110CBA1D12781004FF2212040240A6
:1049F0000A431A60C046BD4602B080BD80B582B091
:104A000000AF0200FB1D1A70FB1D1B787F2B09D81D
:104A1000064BFA1D127811001F220A400121914015
:104A20000A001A60C046BD4602B080BD00E100E049
:104A300080B500AF09E00A4B1B8D9BB21800FEF752
:104A400081FD031E01D0FFF733FB054B1B7EDBB25C
:104A50001A0004231340042BEDD0C046BD4680BD90
:104A60000014004280B500AF0A4B00221A70094BB7
:104A700000225A70074B00229A70064B00225A718E
:104A8000044B00221A71034B00229A71C046BD46A6
:104A900080BDC0460800002080B582B000AF7860BD
:104AA0007B68013309D0074B1B689B68002B04D03F
:104AB000044B1B689A68013A9A60C046BD4602B032
:104AC00080BDC04684230020F62000002221000083
:104AD0003A21000074210000A4210000CE21000032
:104AE000102200004A220000A8220000A822000094
:104AF000A822000080B582B000AF78607B680133E7
:104B000001D1022303E0044B1B689B78DBB2180041
:104B1000BD4602B080BDC0468423002080B500AFF2
:104B2000064B074A1A62C046044B5B6804221340D6
:104B3000042BF9D0C046BD4680BDC046001C0040D5
:104B40000601010080B582B000AF0200FB1D1A70A3
:104B5000FB1D01211800FFF71DF9C04600F002F906
:104B6000031EFBD1C046BD4602B080BD80B582B0F9
:104B700000AF78603960054B7A681A62034B3A6877
:104B80005A62C046BD4602B080BDC046E822002041
:104B900080B582B000AFBB1D054AD28F1A80044B8E
:104BA0000022DA87BB1D1B881800BD4602B080BDFD
:104BB0003C22002080B582B000AF78603960054BA0
:104BC0007A681A62034B3A685A62C046BD4602B020
:104BD00080BDC0463C22002080B582B000AF0200FC
:104BE000FB1D1A70FB1D1B785BB29BB21800FFF710
:104BF00075FEC046BD4602B080BD80B582B000AF34
:104C00000200FB1D1A70FB1D1B785BB29BB21800E3
:104C1000FFF781FEC046BD4602B080BD80B582B0C0
:104C200000AF0200BB1D1A80034BDB785BB218009B
:104C3000BD4602B080BDC046B422002080B582B01F
:104C400000AF786039603968786800230022FDF78A
:104C500041FB03001800BD4602B080BD80B582B0A4
:104C600000AF786039603B687A6800210020FDF76A
:104C700031FB03001800BD4602B080BD80B582B094
:104C800000AF78607B68002B02D0034B7A689A6390
:104C9000C046BD4602B080BD3C22002080B500AFBA
:104CA000054B00229A60044B034A126801210A4313
:104CB0001A60C046BD4680BD10E000E080B500AF80
:104CC000BFF34F8F034B044ADA60BFF34F8FC046E8
:104CD000FDE7C04600ED00E00400FA0530B5002411
:104CE000A24201D1002005E0035D651C0C5DA342DA
:104CF00001D0181B30BD2C00F2E7704780B500AF23
:104D0000044B00229A61034B00221A61C046BD4643
:104D100080BDC04600140040B0B500AF044B1C6914
:104D200000F020F80300E31A013B1800BD46B0BDB7
:104D30003C22002080B582B000AF786039607B688B
:104D40003A689A61C046BD4602B080BD80B582B067
:104D500000AF786039607B683A685A61C046BD46EA
:104D600002B080BD80B582B000AFFFF75BFD0300ED
:104D70007B607B681800BD4602B080BD80B500AF87
:104D8000034B00221A70FFF789FFC046BD4680BD65
:104D90000400002060280000722800009228000013
:104DA000BA290000902900004829000080B500AF12
:104DB000024B82225A60C046BD4680BD0040004181
:104DC000D52200003D4C00005D4C00004542000033
:104DD0006D4B000080B500AF024B00225A63C04605
:104DE000BD4680BD7C22002080B500AF8023DB055E
:104DF00001225A72C046BD4680BD80B500AFFFF7A4
:104E000089FBFDF721FDC046BD4680BD002310B5DE
:104E10009A4200D110BDCC5CC4540133F8E780B590
:104E200000AF0020FFF79EFAFFF7E7FFFCE7030063
:104E30008218934200D1704719700133F9E780B5A9
:104E400000AFFFF78FFBC046BD4680BD80B500AF09
:064E5000C046BD4680BD16
:104E5800C04D00000900000080B500AFFFF72AFF31
:104E680080B500AFFEE780B500AFFEE77047C046EB
:0200000400807A
:0840000077C700B0B900FFFF13
:00000001FF
